:020000040000FA
:1000000001288316031303308500860188018316B7
:1000100003130713871719309900243098008312AF
:100020000313903098008316031304309F0083124B
:100030000313850186018801AB0104213D214A217A
:1000400086200030F920A8000130F920A7002E08F2
:10005000023C03193F286430280203183B28003073
:10006000AE000310270CAA0064302A02031C3F28AC
:100070006430AA003F280130AE006430AA002A088C
:100080002B0203194E282B082A02031C4B28482850
:10009000DF20AB0A3F28E620AB033F288030252134
:1000A0002B30232132302321353023212E302321C0
:1000B00030302321DF3023214330232120302321FE
:1000C000313023213030232131302321333023219B
:1000D000683023215030232161302321C030252175
:1000E0002B08C220D5202530232120302321303079
:1000F00023212808C220D520203023214C30232161
:1001000075302321783023215021202883120313B6
:100110009818B0281819B028831203138C1E0800F1
:10012000831203131A08AF00831203132F08023C33
:100130000319A4282F08083C0319A7282F08C03941
:10014000C03C0319AA2808002B08B620080028087C
:10015000B62008002F083F39AA000230AE00080080
:1001600018121A081816831203130800B000831619
:100170000313981CB92883120313300899008312C3
:1001800003130800A401A501A601A60064302602FD
:10019000031CCD28A600A40AC6280A302602031C88
:1001A000D428A600A50ACD2808002408303E232123
:1001B0002508303E23212608303E232108000A303E
:1001C000AD00AC0AED20AD0BE12808000A30AD000F
:1001D000AC03ED20AD0BE82808000330AC052C087B
:1001E000F4208600412108008207033406340C34D1
:1001F0000934A90041309F0029189F1568211F1557
:100200001F1900291E080800C830A000FA30A100FC
:10021000A10B0829A00B0629081003302F215F210C
:1002200003302F215F2103302F215F2102302F2146
:100230005F21283025210C30252106302521013071
:1002400025215F210800081526290811A300230E87
:100250000F392F2123080F392F2168210800A00012
:10026000A00E2008F039A00008080F3920048800EB
:1002700000008815682188110800013025215F21C0
:1002800008000F30A0003230A100A10B4529A00BBF
:10029000432908000A30A2005621A20B4C2908006D
:1002A0000430A2005621A20B522908006430A0009D
:1002B000A030A100A10B5A29A00B58290800143026
:1002C000A000A030A100A10B6329A00B61290800A8
:0A02D0003230A000A00B6A290800DC
:0402DA0000340034B8
:02400E00313F40
:00000001FF
