:02000000742C5E
:02000800482C82
:10089000C800030EC90083010A08CA008A010313B5
:1008A00083128C1E632C031383129818602C03137D
:1008B00083121A0803138312C5000130C600632C8B
:1008C00018121816632C031383128B1C6D2C031340
:1008D00083123114031383128B104A088A00490EC5
:1008E0008300C80E480E09009A279A270313831223
:1008F0008B01B224031383123118DE25A527FA24B5
:100900009125031383122208A5002308A600B6250B
:100910002D3010270313831231187A2C2D30102715
:10092000031383122008A5002108A600B6252D3048
:1009300010272D30102703138312B00103138312E5
:100940000108C0000310C00C400803138312A40068
:10095000C7252D3010272D301027031383120130A7
:10096000B0007A2C03138316FF3085000F30860009
:100970008030870088018E309F002830810003136B
:1009800083128501860187018801A201A401B101BA
:10099000C601031383121B30A000A10103138312AD
:1009A0000130B000031383123230AF0081309F005A
:1009B000031383161930990003138316243098000B
:1009C0000313831290309800031383121A081A0835
:1009D00003138312F03086008613031383168C16DC
:1009E000031383120B160B178B179A27031383120B
:1009F000870108000313831281309F00802780271E
:100A00001F151F19012D031383161E0803138312CC
:100A1000BD00031383121E0803138312BE00F430BB
:100A20005225031383123D0803138312BB070318D7
:100A3000BC0A031383123E0803138312BC0703137B
:100A40008312FF30C1000330C200712503138312EB
:100A50003A0803138312A2000313831243080313FB
:100A60008312BD0003138312440803138312BE00D4
:100A70006430522503138312FF30BA0703186D2523
:100A80000130BB070318BC0A03138312FF30C100F7
:100A90000330C2007125031383123A080313831233
:100AA000A300080003138312BF00BA01BB01BC01FD
:100AB0000830C0000310BA0DBB0DBC0D0310BF0DF4
:100AC000031C6A2D3D08BA0703186D253E08BB07B5
:100AD0000318BC0AC00B5A2D0800BB0A0319BC0A34
:100AE000080003138312C301C4011830BF000310B0
:100AF000BA0DBB0DBC0DC30DC40D42084402031C4E
:100B00008E2D031D872D41084302031C8E2D4108A5
:100B1000C302031CC4034208C4023A14BF0B772D5E
:100B200008000313831222080313831220020319FF
:100B30009C2D031CAC2DA72D031383122308031334
:100B4000831221020319B12D031CAC2DA72D031311
:100B500083120716871208000313831207128716E1
:100B6000080003138312071287120800031383126D
:100B700025080527AB002A08C000031383122608A6
:100B80000527AD002A08AC004008AA00080003139E
:100B90008312AA01AB01AC01AD0164304002031C19
:100BA000D42DC000AB0ACD2D0A304002031CDB2D32
:100BB000C000AC0AD42D4008AD0008000313831216
:100BC0008B13031383120712871203138312B301CB
:100BD000B401B501B601B701B801FF30B900AF26C5
:100BE0002227C82603138312B2000313831232088C
:100BF00003138312390603191F2E031383123208BD
:100C000003138312B900FF3C03191F2E2E269A27C7
:100C10000330C000AF26222722272227C826FF3C08
:100C2000031D172E03138312C00B0A2E1A2E033036
:100C3000C0000A2E9A2703138312FF30B900031352
:100C40008312311C242EEF2D03138312F030860003
:100C50008613031383128B108B1708000313831260
:100C600032080B3C0319742E32080A3C03196D2E0E
:100C700032080C3C031908003D2E03138312371869
:100C80004E2E03138312340803138312B30003138D
:100C90008312320803138312B40008000313831273
:100CA0003808013C031C0800031383123808031D95
:100CB000632E03138312320803138312B500031348
:100CC0008312B80A08000313831232080313831235
:100CD000B60003138312B80A0800031383123714F3
:100CE00003138312B8010800031383123308BD00F5
:100CF000BE010A305225031383123A0803138312EC
:100D00003407C0000A304002031CAB2E4008323CBE
:100D1000031CAB2E4008323C031D932E0313831299
:100D20003508031DAB2E400803138312A0000313E4
:100D300083123508BD00BE010A3052250313831209
:100D40003A0803138312360703138312A100031317
:100D500083123110080003138312311008000313AB
:100D600083123308AA00003C031DB82E0A30AA00E3
:100D7000031383123408AB000313831230140313DC
:100D800083123508AC00031383123608AD00080047
:100D900003138312FF30B200031383128616061763
:100DA000861706128F27061C0134861C0434061D84
:100DB0000734861D0A3403138312061686128F2702
:100DC000061C0234861C0534061D0834861D0034BA
:100DD00003138312861606138F27061C0334861C02
:100DE0000634061D0934861D0B34031383120617BF
:100DF00086138F27061C0C34861C0D34061D0E34FA
:100E0000861D0F34FF30B2000800AA01BD000A3071
:100E10003D02031C0E2FBD00AA0A072F3D08080043
:100E200003138312AE002227A52703138312AF0BEF
:100E30001D2F3230AF00FA24912503138312AE0B1D
:100E4000132F08005B27031383122A086C276427DB
:100E5000031383120708F0390138870080275B27C6
:100E6000031383122B086C27642703138312301893
:100E70008817031383120708F03902388700802788
:100E80005B27031383122C086C2764270313831238
:100E90000708F0390438870080275B270313831283
:100EA0002D086C276427031383120708F0390838CC
:100EB000870080270800031383120708F039870092
:100EC000031383128801080003138312A700270865
:100ED000031383128800080003138312A70007304E
:100EE0008A0027087427080082073F3406345B34E1
:100EF0004F3466346D347D3407347F346F340034BE
:100F000003138312FF30A80000000000000000005F
:100F10000000000000000000A80B842F080003134D
:100F200083128030A8000000000000000000A80B21
:100F3000932F0800031383123230A800FF30A9005A
:100F4000A90BA02FA80B9E2F080003138312461C89
:100F500008004610AB2F031383124508C700C71BB8
:100F6000E02FB22F4708013C0319C72F4708023C66
:100F70000319CC2F4708033C0319D12F4708043C21
:100F80000319D62F4708053C0319DB2F080003136C
:100F900083122108F2270800031383122008F22786
:100FA0000800031383122308F22708000313831297
:100FB0002208F2270800031383122408F2270800EE
:100FC00003138312471BEA2F47083F390313831289
:100FD000A10008000313831247083F39031383124B
:100FE000A000080003138312C50003138316981C86
:100FF000F52F031383124508031383129900080089
:02400E00723FFF
:00000001FF
